:020000040800F2
:100000001804002001010008F50A0008ED0A0008A4
:10001000F10A000879010008090B0008000000003F
:10002000000000000000000000000000FD0A0008C1
:100030007D01000800000000F90A0008010B00081B
:100040001B0100081B0100081B0100081B01000820
:100050001B0100081B0100081B0100081B01000810
:100060001B0100081B0100081B0100081B01000800
:100070001B0100081B0100081B0100081B010008F0
:100080001B0100081B0100081B0100081B010008E0
:100090001B0100081B0100081B0100081B010008D0
:1000A0001B0100081B0100081B0100081B010008C0
:1000B0001B0100081B0100081B0100081B010008B0
:1000C0001B0100081B0100081B0100081B010008A0
:1000D0001B0100081B0100081B0100081B01000890
:1000E0001B0100081B0100081B010008DFF80CD0F1
:1000F00000F02AF8004800470D0B00081804002003
:100100000648804706480047FEE7FEE7FEE7FEE7B1
:10011000FEE7FEE7FEE7FEE7FEE7FEE7050B000869
:10012000ED000008D2B201E000F8012B491EFBD21D
:1001300070470022F6E710B513460A4604461946F2
:10014000FFF7F0FF204610BD1CB509480090094894
:1001500001900546009C06E0E06840F0010394E849
:10016000070098471034AC42F6D3FFF7C3FF0000F6
:10017000300C0008500C0008FEE70000704700003B
:100180002DE9F04F82B00E68002E00F0FD8041F2A4
:100190000042C4F20102042340F2004E904208BF24
:1001A00003234FF6FF7CC4F2010E009300240123C9
:1001B000C1F2100C4FF0000A4FF0000944E000BFFC
:1001C000012704F00C030F229A402BEA020207FADF
:1001D00003F34FEA9A051A4346F825204E6840F289
:1001E0000C45F202DEF8082054BF22EA080242EA77
:1001F0000802C4F20105CEF808202A68B30254BFF1
:1002000022EA080242EA08022A60B303DEF8042068
:1002100054BF22EA080242EA0802F303CEF804209F
:10022000DEF800204FF0010354BF22EA080242EA40
:100230000802CEF800200E680AF1010A36FA0AF226
:1002400004F1040400F0A08003FA0AFB16EA0B088C
:10025000F1D04E68664511DC122E55D8DFE806F065
:10026000340A4448545454545454545454545454D4
:10027000544C5000D1F80C9046E000BF4FF6FF728E
:10028000C1F2210296420FDC0022C1F21102964215
:100290001AD00022C1F21202964215D00022C1F2F9
:1002A0002102964210D02FE00022C1F22202964293
:1002B0000AD00022C1F23102964205D00022C1F2DA
:1002C0003202964220D100BF8A684AB1012A14BF87
:1002D000C0F814B0C0F810B04FF0080914E000BF27
:1002E0004FF0040910E000BFCA6802F108090BE0F2
:1002F0004FF0000908E000BFCA6802F1040903E0FA
:10030000CA6802F10C0900BF22460646B8F5807F94
:1003100024BF203A043637680F25954027EA0505A3
:1003200009FA02F22A433260CA79D2067FF583AF16
:1003300041F21803C4F202031A68AEF57E7642F069
:1003400001021A601A6802F001020192019A2AF071
:10035000030256F802B040F60002C4F201029042D5
:1003600010D040F60042C4F2010290423FF428AFA0
:1003700041F20002C4F20102009F904208BF02272E
:100380001FE700BF00271CE702B0BDE8F08F0000A8
:100390008068084018BF012070470000002A08BF8D
:1003A000090401617047000040F21000C2F2000031
:1003B0000068704740F2000040F21001C2F20000F5
:1003C000C2F2000100780A6810440860704700001B
:1003D00080B542F20000C4F20200016841F0100151
:1003E0000160032000F07AF80F2000F005F800F01B
:1003F00027F8002080BD000070B540F20006C2F270
:10040000000640F208013278C2F200014FF47A731C
:100410000968B3FBF2F20446B1FBF2F1084600F0C2
:100420004FFB0F2C4FF0010508D838B94FF0FF30C3
:1004300021460022002500F025F87460284670BD92
:1004400082B041F21800C4F202000168042241F0B7
:1004500001010160016801F0010101910199416808
:1004600041F080514160406800F080500090009859
:100470000420C4F20100016862F31A61016002B055
:100480007047000010B54EF60C5CCEF2000CDCF8A4
:100490000030C3F3022E8EF00704042C28BF04247E
:1004A000BEF103034FF0FF3E0EFA04F438BF002301
:1004B000A14399400EFA03F39A43114300F00F024F
:1004C00000F160430901043A03F5644362440028E3
:1004D00048BF02F10C03197010BD00004EF60C511C
:1004E000CEF200010A684FF6FF031A4060F30A22B9
:1004F00042F0806040F0FD7008607047002804BF43
:10050000012070472DE9F04381B042F20008C4F2A7
:1005100002080446D8F800000D4600F007008842A3
:100520000CD2D8F8000020F007002843C8F80000DB
:10053000D8F8000000F00700A8426CD1206841F212
:1005400004098107C4F2020917D5410705D5D9F876
:10055000001041F4E061C9F80010010705D5D9F891
:10056000001041F46051C9F80010D9F80010A268D9
:1005700021F0F0011143C9F80010C00742D1D8F8AA
:10058000000000F00700A8420CD9D8F8000020F0C5
:1005900007002843C8F80000D8F8000000F0070062
:1005A000A84238D12068410707D5D9F80010E26881
:1005B00021F4E0611143C9F80010000708D5D9F80B
:1005C0000000216920F4605040EAC100C9F8000031
:1005D000D9F8002002F00C00082841F20020C0F2F7
:1005E0007A0051D140F61E43C2F38341C0F60003A6
:1005F000595CD2033CD440F60010C0F23D004843A1
:1006000042E000BF606802280AD001282AD159F8C8
:10061000041C890308D4012001B0BDE8F08300BFA9
:1006200059F8041C8901F6D5D9F8001021F003010E
:100630000843C9F80000FFF7B7FE064641F28837C5
:10064000D9F80000616800F00C00B0EB810F96D083
:10065000FFF7AAFE801BB842F2D9032001B0BDE823
:10066000F08300BF59F8041C8907D4D5DCE700BF2C
:10067000D9F8002040F61C43C2F34042C0F6000304
:100680009A5C4843B0FBF2F0D9F8001040F60C42F7
:10069000C1F30311C0F60002515C40F2080220FAD7
:1006A00001F140F20400C2F200000068C2F2000250
:1006B0001160FFF7A1FE002001B0BDE8F08300004B
:1006C000002804BF012070472DE9F04182B00446A4
:1006D000007841F20006C007C4F202060CD0706830
:1006E00000F00C00042840F081803068800303D5BE
:1006F0006068002800F04E81207880071BD5706864
:1007000010F00C0F09D0706800F00C00082840F0C1
:100710008B807068C00300F187803068800703D544
:100720002069012840F036813068616920F0F800C6
:1007300040EAC10030602078000713D420784007D9
:100740002CD4E569002D00F02081706800F00C00C9
:10075000082840F0AF80012D40F00C81012002B04C
:10076000BDE8F081A069002800F08C800020C4F270
:1007700042200121C0F88014FFF716FE054600BF95
:10078000706A800700F1BA80FFF70EFE401B022856
:10079000F6D9032002B0BDE8F08100BFF0695FEA3E
:1007A000C00808D4F06940F08050F061F06900F0B2
:1007B00080500090009847F20007C4F200073868A4
:1007C000C0054DD4386840F480703860FFF7ECFD08
:1007D000054600BF3868C00542D4FFF7E5FD401B61
:1007E0006428F7D9032002B0BDE8F081706800F0FA
:1007F0000C00082803D17068C0033FF576AF60682D
:10080000002800F00981B0F5A02F00F01D81B0F59F
:10081000803F00F01D81306820F480303060306807
:1008200020F4802017E100BF2069002840F200007A
:10083000C4F2422000F08C8001210160FFF7B4FD7A
:10084000054600BF306880073FF56EAFFFF7ACFD8F
:10085000401B0228F6D9032002B0BDE8F08100BF9A
:10086000E068002800F09A80052800F0B180012897
:1008700000F0B280306A20F001003062306A20F06F
:100880000400ACE00020C4F242200021C0F8801433
:10089000FFF78AFD054600BF706A80077FF54EAFFF
:1008A000FFF782FD401B0228F6D9032002B0BDE805
:1008B000F08100BF0027C4F2422700203866FFF70E
:1008C00073FD022D05460DD13068800140F1D680C0
:1008D000FFF76AFD401B02284FF00300F4D902B075
:1008E000BDE8F081306880014FD5FFF75DFD401B0A
:1008F00002284FF00300F5D9F1E700BF40F20800ED
:10090000C2F20000006844F6D351C1F26201A0FBBC
:100910000101480A019000BF00BF0198411E002854
:1009200001913FF40BAF00BF0198411E00280191D7
:100930003FF404AF00BF0198411E002801913FF42D
:10094000FDAE00BF0198411E00280191E4D1F5E6FB
:1009500000210160FFF728FD054600BF30688007D1
:100960007FF5E9AEFFF720FD401B02284FF00300A2
:10097000F4D9B4E77068216A00F480328A4209D160
:10098000616A00F47010884204D1002002B0BDE812
:10099000F08100BF012002B0BDE8F081306A20F094
:1009A00001003062306A20F004003062FFF7FCFC86
:1009B000054641F2883700BF306A800722D5FFF72D
:1009C000F3FC401BB8424FF00300F5D987E700BFA6
:1009D000306A40F004003062306A40F0010030625A
:1009E000FFF7E2FC054641F2883700BF306A800716
:1009F00008D4FFF7D9FC401BB842F7D9032002B056
:100A0000BDE8F081B8F1000F3FF59BAEF06920F032
:100A10008050F06195E600BF306820F4803030608F
:100A2000306820F480203060FFF7BEFC054600BF30
:100A3000306880037FF560AEFFF7B6FC401B64288A
:100A40004FF00300F4D94AE7306840F4802030606A
:100A5000306840F480303060FFF7A6FC054600BFE8
:100A6000306880033FF548AEFFF79EFC401B6428CA
:100A7000F6D9032002B0BDE8F08100BF206AB0F5CE
:100A8000803F05D17168A26821F400311143716083
:100A90007168626A21F47411114308437060012087
:100AA0003866FFF781FC0446306880013FF56DAF82
:100AB000FFF77AFC001B02284FF00300F4D90EE781
:100AC000411E0020B0EB116F1CBF012070474EF299
:100AD0001002CEF2000251604EF62351CEF2000118
:100AE000F0230B700721906011607047FEE7000053
:100AF000FEE70000FEE700007047000070470000BE
:100B0000FFF758BC70470000FEE7000090B0FFF709
:100B10005FFC06AC201D2421FFF70BFB0220069092
:100B200001200A9010200B90002520460D95FFF71C
:100B3000C7FD28B1EFF3108072B600BFFEE700BF1B
:100B40000F20CDE9010501A80021CDE90355059548
:100B5000FFF7D4FC20B1EFF3108072B6FEE700BFC0
:100B6000002741F218000997C4F20200016840F61C
:100B7000000441F0100101600168C4F2010401F0B9
:100B80001001019101990168002241F00401016006
:100B90000068202100F004000190019820464FF0E9
:100BA0002008FFF7FBFB4FF4005004F5006506AE8C
:100BB000CDE90607284631460897FFF7E1FA0120FC
:100BC000CDE907070220099020463146CDF818806C
:100BD000FFF7D6FA28464FF40051FFF7D9FBB0FAD9
:100BE00080F0420920462021FFF7D8FBF2E702E01F
:100BF00008C8121F08C1002AFAD1704770470020A8
:100C000001E001C1121F002AFBD170470000000063
:100C100000000000010203040607080901020203A4
:100C20000405060708090A0B0C0D0E0F1010000032
:100C3000500C00080000002010000000EE0B00081F
:100C4000600C00081000002008040000FE0B0008E3
:100C500001000000100000000024F400000000006B
:04000005080000ED02
:00000001FF
