:020000040800F2
:10000000F0060020B5010008FD150008F5150008F0
:10001000F9150008E10300081116000800000000AF
:1000200000000000000000000000000005160008AD
:10003000F10300080000000001160008091600087E
:10004000CF010008CF010008CF010008CF01000850
:10005000CF010008CF010008CF010008CF01000840
:10006000CF010008CF010008CF010008E503000818
:10007000CF010008CF010008CF010008CF01000820
:10008000CF010008CF010008CF010008CF01000810
:10009000CF010008CF010008CF010008CF01000800
:1000A000CF010008CF010008CF010008CF010008F0
:1000B000CF010008CF010008CF010008CF010008E0
:1000C000CF010008CF010008CF010008CF010008D0
:1000D000CF010008CF010008CF010008CF010008C0
:1000E000CF010008CF010008CF01000800F002F89E
:1000F00000F050F814A696E8000CB244B344DA4578
:1001000001D100F047F8BAE80F000FA696E83000DA
:10011000A5EB040504EB0607AAEB0704A7F101070A
:100120004FEA15154FEA3414A4F10104AC4201D38F
:1001300000F030F813F0010F18BFFB1A43F0010371
:1001400000F001F8DBE718476C1600008C16000081
:10015000103A24BF78C878C1FAD8520724BF30C8F3
:1001600030C144BF04680C60704700007047000055
:100170000023002400250026103A28BF78C1FBD8B0
:10018000520728BF30C148BF0B6070471FB51FBD65
:1001900010B510BD00F058F81146FFF7F7FF01F059
:1001A00039FA00F076F803B4FFF7F2FF03BC00F071
:1001B0007DF800000948804709480047FEE7FEE750
:1001C000FEE7FEE7FEE7FEE7FEE7FEE7FEE7FEE707
:1001D00004480549054A064B704700000D16000803
:1001E000ED000008F0000020F0060020F0020020E2
:1001F000F00200204FF0000200B5134694469646E8
:10020000203922BFA0E80C50A0E80C50B1F1200129
:10021000BFF4F7AF090728BFA0E80C5048BF0CC0D7
:100220005DF804EB890028BF40F8042B08BF704735
:1002300048BF20F8022B11F0804F18BF00F8012BA7
:100240007047704770477047754600F02BF8AE4610
:1002500005006946534620F00700854618B020B5D2
:10026000FFF7B6FFBDE820404FF000064FF0000753
:100270004FF000084FF0000BAC46ACE8C009ACE80A
:10028000C009ACE8C009ACE8C00921F007018D46FF
:10029000704710B50446AFF300802046BDE810401B
:1002A000FFF781BF00487047100000200149182067
:1002B000ABBEFEE726000200704700000146406A20
:1002C000826A12F0500F03D0006A026B0846104792
:1002D0000168826A42F400728262896801F46021D6
:1002E000B1F5602F01D1017B11B100F045B900BF1C
:1002F000816A21F480718162816AC90448BF00F07B
:100300003BB9816A41F00101816200F035B900001A
:10031000406A816A41F040018162C16A41F0040192
:10032000C16200F02DB90000406A00F027B900005A
:10033000B0B582B004460020019021688A68D207D7
:100340004BD1886840F00100886040F20800C2F29A
:10035000000000684DF68361C4F21B31A0FB01016F
:10036000880C01900198A0B1019801380190019882
:1003700078B1019801380190019850B10198013885
:100380000190019828B10198013801900198002846
:10039000EAD100F0F9FC21688968C9071CD105463B
:1003A00003E000BF8068C00716D100F0EDFC411BE0
:1003B00020680329F6D38168C907F3D1A06A40F009
:1003C0001000A062E06A40F00100E062002084F8C2
:1003D0002400012002B0B0BD002002B0B0BD00007A
:1003E000FEE7000040F2A800C2F2000000F05ABA96
:1003F00070470000EFF3108072B600BFFEE7000008
:1004000010B581B00022009290F82420012A03D177
:100410000221084601B010BD4B680122062B80F86E
:10042000242033D8D0F800C003EB83035A1F1F23C6
:10043000DCF834E003FA02F40B682EEA040403FA51
:1004400002F22243CCF83420092B03EB430249D9B2
:10045000DCF80CE01E3A0724896894402EEA040474
:10046000914023F001022143102ACCF80C1043D113
:1004700042F20841C4F20101A1F10802944543D0BF
:10048000816A41F020018162012136E0D0F800C08C
:100490000C2B03EB830213D8233A1F23DCF830E044
:1004A00003FA02F40B682EEA040403FA02F2224370
:1004B000CCF83020092B03EB4302C9D812E000BF6F
:1004C000413A1F23DCF82CE003FA02F40B682EEA11
:1004D000040403FA02F22243CCF82C20092B03EB8C
:1004E0004302B5D8DCF81030072489689440A34350
:1004F00091401943CCF810100021002280F82420EC
:10050000084601B010BD00BF0A681202F4D40A68A0
:10051000102B42F400020A60EED140F20801C2F250
:10052000000109684DF68362C4F21B32A1FB02127E
:10053000910C01EB81014900009100990029DBD069
:1005400000990139009100990029D5D0009901390D
:10055000009100990029CFD00099013900910099AC
:100560000029C9D0009901390091009900294FF064
:100570000001E5D1C1E700007047000070470000AE
:1005800070470000002804BF01207047B0B5044642
:10059000806A28B121688868C0070CD115E000BFC7
:1005A0000020E06284F82400204600F09BF82168D7
:1005B0008868C00709D0886820F00100886000F0D2
:1005C000E3FB21688A68D20726D1A06AC0063AD424
:1005D000A06A41F2021290430230A062E069D4E9BD
:1005E000013240EA030C531EB3FA83F35D0913464C
:1005F000B2F5807F18BF2B02207D257B01284CEAB5
:10060000450030D135B3A56A45F02005A562E56AFD
:1006100045F00105E56226E0054602E08868C0076E
:10062000D3D000F0B1FB401B21680328F6D38868C3
:10063000C007F3D0A06A40F01000A062E06A40F06A
:100640000100E062A06AA06A40F01000A0620120F0
:10065000B0BD00BFD4F818C04EF60005CFF6FF7548
:1006600005EB4C352B434D68B2F5807F25F4694589
:1006700043EA05034B608B684FF2FD75CFF6E175D9
:1006800003EA050343EA00038B6001D0012A07D186
:1006900022690023CFF6F07303EB025201E000BFA2
:1006A0000022CB6A23F470031A43CA62896840F6B9
:1006B000FE62CFF61F721140814207D10020E06236
:1006C000A16A012262F30101A162B0BDA06A40F0FB
:1006D000100020F00200A062E06A40F00100E06239
:1006E0000120B0BD70B586B0044640F60000C4F2EB
:1006F0000100216800F5E05200269142059604961B
:1007000002D006B070BD00BF41F21801C4F2020170
:100710000A6842F400720A600A6802F400720192E8
:10072000019A0A6842F004020A60096801F00401B3
:1007300001910199132102910321039102A900F073
:1007400015FA40F2A8050820C2F20005C4F2020022
:100750004FF48072C5E9000605F1100080214FF4C6
:1007600080634FF0200C80E80C102846C5E9026138
:10077000EE6100F067F9002818BFFFF73BFE256225
:100780006C6206B070BD000070B515460446006886
:1007900042F60002C4F2010290420E4605D042F237
:1007A0000041C4F2010188420AD142F20440C4F27D
:1007B0000100006810F4702F02D0012070BD00BF4E
:1007C00094F82400012804BF022070BD012084F8A1
:1007D00024002046FFF7ACFD20B1002084F824005F
:1007E000012070BD42F204402168A26AC4F20100F7
:1007F00040F601739A4300F57F7302F580729942C7
:10080000A26243D0A06A20F48010A062486840052C
:1008100004D5A06A012262F30D30A062A26A002012
:10082000D2044FF0000244BFE26A22F00602E26204
:1008300084F82400206A40F2BD22C0F6000240F293
:10084000293340F2113C00F1280EC0F60003C0F637
:10085000000C8EE80C106FF002020A608A682B46CA
:1008600042F480728A604C31324600F02FF92068E1
:10087000816801F460228168B2F5602F0CBF41F4F9
:10088000A00141F480118160002070BD026812F463
:10089000702FB7D0A26A42F48012A26200684005AD
:1008A000B7D4BBE710B5D0E90FCE0168DCF8003053
:1008B0000A6823FA0EF35C072AD512F0040427D045
:1008C0000A68920603D40A6822F004020A602F2202
:1008D000C4F20202914240F20402C4F202025BDD61
:1008E0003023C4F20203994272D04423C4F20203BB
:1008F000994273D05823C4F20203994240F07A809F
:100900004FF480231360C16A002940F098806FE0A3
:100910009C0727D512F0020424D00A68920606D458
:100920000A6822F00A020A60012280F821202F22A0
:10093000C4F20202914240F20402C4F202023BDD20
:100940003023C4F20203994260D04423C4F202036C
:1009500099425FD05823C4F20203994260D14FF408
:10096000003365E01B0743D512F0080208BF10BD35
:100970000A6822F00E020A60012101FA0EF2CCF898
:100980000420816380F82110016B0022002980F887
:10099000202054D12CE000BF0823C4F20203994266
:1009A00022D01C23C4F20203994223D140231360B6
:1009B000C16A002943D11BE00823C4F20203994213
:1009C0002CD01C23C4F20203994229D120232FE00A
:1009D0004FF480631360C16A89BB09E04FF4804320
:1009E0001360C16A59BB03E004231360C16A31BBC1
:1009F00010BD00BF02F168044FF08063A14208BF40
:100A00004FF480031360C16AC9B9F1E74FF4007372
:100A10000EE000BF4FF400530AE000BF022307E0DE
:100A200002F168044FF00073A14208BF4FF40013B5
:100A30001360816A0022002980F82020D8D0BDE808
:100A400010400847014600284FF0010008BF7047DA
:100A50002DE9F0470A684FF6F873CBF6FD7302EB09
:100A6000030C4CF6CD43CCF6CC43ACFB033C6FF00F
:100A70000307002607EA9C07C4F2020601F10C0AEC
:100A8000C1E90F670227D1E9013E9AE83004D1E9B4
:100A9000069881F82170176843F6F076B7433B4318
:100AA00043EA0E0323432B4343EA0A0343EA0903C1
:100AB00043EA0803136000228A6381F8210081F869
:100AC00020200020BDE8F0477047000090F820C0CB
:100AD000BCF1010F04BF02207047F0B54FF0010ECA
:100AE00080F820E090F821C0BCF1010F26D14FF032
:100AF000020C80F821C04FF0000CC0F838C0D0E9DB
:100B000000C4C56AC66BDCF80070102C27F0010722
:100B1000CCF80070006C0EFA00F070600846CCF85B
:100B2000043004BF10460A46CCF80800CCF80C206C
:100B3000DCF8000045B140F00E000DE0002180F827
:100B400020100220F0BD00BF20F00400CCF800000F
:100B5000DCF8000040F00A00CCF80000DCF80000EF
:100B600040F00100CCF800000020F0BD2DE9F04F6E
:100B700082B00E68002E00F0FD8041F20042C4F207
:100B80000102042340F2004E904208BF03234FF6B7
:100B9000FF7CC4F2010E009300240123C1F2100C6B
:100BA0004FF0000A4FF0000944E000BF012704F0B5
:100BB0000C030F229A402BEA020207FA03F34FEAD2
:100BC0009A051A4346F825204E6840F20C45F20279
:100BD000DEF8082054BF22EA080242EA0802C4F202
:100BE0000105CEF808202A68B30254BF22EA0802A1
:100BF00042EA08022A60B303DEF8042054BF22EA66
:100C0000080242EA0802F303CEF80420DEF80020CE
:100C10004FF0010354BF22EA080242EA0802CEF86C
:100C200000200E680AF1010A36FA0AF204F10404FF
:100C300000F0A08003FA0AFB16EA0B08F1D04E6818
:100C4000664511DC122E55D8DFE806F0340A444818
:100C5000545454545454545454545454544C5000B4
:100C6000D1F80C9046E000BF4FF6FF72C1F22102AE
:100C700096420FDC0022C1F2110296421AD00022E5
:100C8000C1F21202964215D00022C1F22102964210
:100C900010D02FE00022C1F2220296420AD0002298
:100CA000C1F23102964205D00022C1F232029642D0
:100CB00020D100BF8A684AB1012A14BFC0F814B01D
:100CC000C0F810B04FF0080914E000BF4FF004095D
:100CD00010E000BFCA6802F108090BE04FF00009FC
:100CE00008E000BFCA6802F1040903E0CA6802F123
:100CF0000C0900BF22460646B8F5807F24BF203A83
:100D0000043637680F25954027EA050509FA02F2EF
:100D10002A433260CA79D2067FF583AF41F21803C5
:100D2000C4F202031A68AEF57E7642F001021A6040
:100D30001A6802F001020192019A2AF0030256F8A1
:100D400002B040F60002C4F20102904210D040F618
:100D50000042C4F2010290423FF428AF41F2000287
:100D6000C4F20102009F904208BF02271FE700BFA4
:100D700000271CE702B0BDE8F08F0000002A08BF82
:100D8000090401617047000040F2EC00C2F200006B
:100D90000068704740F2000040F2EC01C2F200002F
:100DA000C2F2000100780A68104408607047000031
:100DB00080B542F20000C4F20200016841F0100167
:100DC0000160032000F08CF80F2000F005F800F01F
:100DD00027F8002080BD000070B540F20006C2F286
:100DE000000640F208013278C2F200014FF47A7333
:100DF0000968B3FBF2F20446B1FBF2F1084600F0D9
:100E0000E3FB0F2C4FF0010508D838B94FF0FF3045
:100E100021460022002500F037F87460284670BD96
:100E200082B041F21800C4F202000168042241F0CD
:100E300001010160016801F001010191019941681E
:100E400041F080514160406800F08050009000986F
:100E50000420C4F20100016862F31A61016002B06B
:100E600070470000002848BF704700F01F010122B2
:100E700002FA01F11C2202EAD0004EF20012CEF278
:100E8000000281507047000010B54EF60C5CCEF2A7
:100E9000000CDCF80030C3F3022E8EF00704042CA3
:100EA00028BF0424BEF103034FF0FF3E0EFA04F402
:100EB00038BF0023A14399400EFA03F39A4311432C
:100EC00000F00F0200F160430901043A03F56443A6
:100ED0006244002848BF02F10C03197010BD0000E5
:100EE0004EF60C51CEF200010A684FF6FF031A408D
:100EF00060F30A2242F0806040F0FD7008607047A5
:100F00002DE9F04182B00446007841F21C06C0078A
:100F1000C4F202064AD030685FEAC00808D43068DC
:100F200040F080503060306800F0805001900198AF
:100F300047F20007C4F200073868C00512D43868C9
:100F400040F480703860FFF71FFF05463868C00521
:100F500008D4FFF719FF401B6428F7D9032002B01B
:100F6000BDE8F081706810F4407012D0616801F43F
:100F7000407188420DD0706840F24042C4F2422273
:100F8000012320F4407113600023C00713607160D7
:100F900026D17068616820F440700843B8F1000FF2
:100FA000706003D4306820F0805030602068810782
:100FB00007D556F8181CA26821F44041114346F8A1
:100FC000181CC00607D556F8180CE16820F48000FC
:100FD000084346F8180C002002B0BDE8F08100BFBD
:100FE000FFF7D2FE054641F2883700BF70688007E0
:100FF000CFD4FFF7C9FE401BB8424FF00300F5D92C
:10100000EAE70000002804BF012070472DE9F04303
:1010100081B042F20008C4F202080446D8F8000089
:101020000D4600F0070088420CD2D8F8000020F0EE
:1010300007002843C8F80000D8F8000000F00700B7
:10104000A8426CD1206841F204098107C4F2020968
:1010500017D5410705D5D9F8001041F4E061C9F86A
:101060000010010705D5D9F8001041F46051C9F806
:101070000010D9F80010A26821F0F0011143C9F85E
:101080000010C00742D1D8F8000000F00700A842C5
:101090000CD9D8F8000020F007002843C8F8000059
:1010A000D8F8000000F00700A84238D120684107B6
:1010B00007D5D9F80010E26821F4E0611143C9F8BE
:1010C0000010000708D5D9F80000216920F460500D
:1010D00040EAC100C9F80000D9F8002002F00C0075
:1010E000082841F20020C0F27A0051D141F2A473E5
:1010F000C2F38341C0F60003595CD2033CD440F6EE
:101100000010C0F23D00484342E000BF6068022882
:101110000AD001282AD159F8041C890308D40120D7
:1011200001B0BDE8F08300BF59F8041C8901F6D571
:10113000D9F8001021F003010843C9F80000FFF7B7
:1011400023FE064641F28837D9F80000616800F0B6
:101150000C00B0EB810F96D0FFF716FE801BB84253
:10116000F2D9032001B0BDE8F08300BF59F8041C98
:101170008907D4D5DCE700BFD9F8002041F2A2737B
:10118000C2F34042C0F600039A5C4843B0FBF2F061
:10119000D9F8001041F29272C1F30311C0F60002B7
:1011A000515C40F2080220FA01F140F20400C2F260
:1011B00000000068C2F200021160FFF70DFE00207F
:1011C00001B0BDE8F0830000002804BF0120704793
:1011D0002DE9F04182B00446007841F20006C007D4
:1011E000C4F202060CD0706800F00C00042840F035
:1011F00081803068800303D56068002800F04E814C
:10120000207880071BD5706810F00C0F09D070682B
:1012100000F00C00082840F08B807068C00300F1DB
:1012200087803068800703D52069012840F0368127
:101230003068616920F0F80040EAC1003060207831
:10124000000713D4207840072CD4E569002D00F066
:101250002081706800F00C00082840F0AF80012D5C
:1012600040F00C81012002B0BDE8F081A0690028A7
:1012700000F08C800020C4F242200121C0F88014CC
:10128000FFF782FD054600BF706A800700F1BA8053
:10129000FFF77AFD401B0228F6D9032002B0BDE813
:1012A000F08100BFF0695FEAC00808D4F06940F03F
:1012B0008050F061F06900F080500090009847F293
:1012C0000007C4F200073868C0054DD4386840F400
:1012D00080703860FFF758FD054600BF3868C005CC
:1012E00042D4FFF751FD401B6428F7D9032002B018
:1012F000BDE8F081706800F00C00082803D1706828
:10130000C0033FF576AF6068002800F00981B0F5B2
:10131000A02F00F01D81B0F5803F00F01D813068E6
:1013200020F480303060306820F4802017E100BF66
:101330002069002840F20000C4F2422000F08C80B6
:1013400001210160FFF720FD054600BF30688007DE
:101350003FF56EAFFFF718FD401B0228F6D90320BA
:1013600002B0BDE8F08100BFE068002800F09A807C
:10137000052800F0B180012800F0B280306A20F02A
:1013800001003062306A20F00400ACE00020C4F2BA
:1013900042200021C0F88014FFF7F6FC054600BF8C
:1013A000706A80077FF54EAFFFF7EEFC401B022806
:1013B000F6D9032002B0BDE8F08100BF0027C4F2D7
:1013C000422700203866FFF7DFFC022D05460DD1CD
:1013D0003068800140F1D680FFF7D6FC401B022820
:1013E0004FF00300F4D902B0BDE8F081306880010D
:1013F0004FD5FFF7C9FC401B02284FF00300F5D979
:10140000F1E700BF40F20800C2F20000006844F6B5
:10141000D351C1F26201A0FB0101480A019000BF53
:1014200000BF0198411E002801913FF40BAF00BF9F
:101430000198411E002801913FF404AF00BF0198BC
:10144000411E002801913FF4FDAE00BF0198411EEE
:1014500000280191E4D1F5E600210160FFF794FC3A
:10146000054600BF306880077FF5E9AEFFF78CFCCA
:10147000401B02284FF00300F4D9B4E77068216ADA
:1014800000F480328A4209D1616A00F47010884207
:1014900004D1002002B0BDE8F08100BF012002B0FD
:1014A000BDE8F081306A20F001003062306A20F03F
:1014B00004003062FFF768FC054641F2883700BF40
:1014C000306A800722D5FFF75FFC401BB8424FF01F
:1014D0000300F5D987E700BF306A40F004003062AE
:1014E000306A40F001003062FFF74EFC054641F2E1
:1014F000883700BF306A800708D4FFF745FC401BDF
:10150000B842F7D9032002B0BDE8F081B8F1000F6E
:101510003FF59BAEF06920F08050F06195E600BF8A
:10152000306820F480303060306820F480203060F3
:10153000FFF72AFC054600BF306880037FF560AEE8
:10154000FFF722FC401B64284FF00300F4D94AE760
:10155000306840F480203060306840F48030306083
:10156000FFF712FC054600BF306880033FF548AE28
:10157000FFF70AFC401B6428F6D9032002B0BDE83F
:10158000F08100BF206AB0F5803F05D17168A26884
:1015900021F40031114371607168626A21F47411A1
:1015A00011430843706001203866FFF7EDFB0446E5
:1015B000306880013FF56DAFFFF7E6FB001B0228A6
:1015C0004FF00300F4D90EE7411E0020B0EB116F7D
:1015D0001CBF012070474EF21002CEF20002516093
:1015E0004EF62351CEF20001F0230B7007219060DC
:1015F00011607047FEE70000FEE70000FEE7000014
:101600007047000070470000FFF7C4BB7047000040
:10161000FEE7000094B0FFF7CBFB0AAC201D2421AD
:10162000FEF7E8FD02200A9001200E901020002510
:101630000F9020460495CDE902551195FFF7C4FDA2
:1016400020B1EFF3108072B6FEE700BF0F20CDE9A6
:10165000050505A80021CDE907550995FFF7D2FC3E
:1016600020B1EFF3108072B6FEE700BF022700251D
:1016700001A801970395FFF743FC28B1EFF3108011
:1016800072B600BFFEE700BF41F21406C4F20206C4
:10169000706840F6000940F0040070607068C4F2A1
:1016A000010900F004000A900A984846A02100228F
:1016B000A024FFF763FB4FF001080AA948460A94EB
:1016C000CDE90B850D97FFF751FA3068002140F006
:1016D000010030603068002200F001000A900A9892
:1016E0000B20FFF7D1FB0B20FFF7BCFB40F270048F
:1016F000C2F2000409F5E051204640F8081F4FF4FB
:1017000080714FF46022C0E90151032180F80C8000
:101710000575C2610161FEF735FF28B1EFF3108056
:1017200072B600BFFEE700BF0020CDE90A0807201F
:1017300004F108050C900AA92846FEF761FE28B1BD
:10174000EFF3108072B600BFFEE700BF01200A90E1
:1017500002200B900AA92846FEF752FE20B1EFF3B3
:10176000108072B6FEE700BF04200A9003200B90A1
:101770000AA92846FEF744FE20B1EFF3108072B6A6
:10178000FEE700BF284621460322FEF7FDFF00BF0B
:10179000FEE700000000000000000102030406074D
:1017A0000809010202030405060708090A0B0C0DCB
:1017B0000E0F1010D81700080000002010000000C5
:1017C00050010008E817000810000020E0060000A3
:1017D000700100080000000001000000100000007F
:0817E0000024F40000000000E9
:04000005080000ED02
:00000001FF
