:020000040800F2
:100000006004002001010008711000086910000858
:100010006D10000879010008911000080000000030
:10002000000000000000000000000000791000083F
:100030007D01000800000000751000087D10000818
:100040001B0100081B0100081B0100081B01000820
:100050001B0100081B0100081B0100081B01000810
:100060001B0100081B0100081B0100081B01000800
:100070001B0100081B0100081B0100081B010008F0
:100080001B0100081B0100081B0100081B010008E0
:100090001B0100081B0100081B0100081B010008D0
:1000A0001B0100081B0100081B0100081B010008C0
:1000B000851000081B0100081B0100081B01000837
:1000C0001B0100081B0100081B0100081B010008A0
:1000D0001B0100081B0100081B0100081B01000890
:1000E0001B0100081B0100081B010008DFF80CD0F1
:1000F00000F02AF80048004795100008600400202E
:100100000648804706480047FEE7FEE7FEE7FEE7B1
:10011000FEE7FEE7FEE7FEE7FEE7FEE781100008E8
:10012000ED000008D2B201E000F8012B491EFBD21D
:1001300070470022F6E710B513460A4604461946F2
:10014000FFF7F0FF204610BD1CB509480090094894
:1001500001900546009C06E0E06840F0010394E849
:10016000070098471034AC42F6D3FFF7C3FF0000F6
:10017000F011000810120008FEE7000070470000B0
:100180002DE9F04F82B00E68002E00F0FD8041F2A4
:100190000042C4F20102042340F2004E904208BF24
:1001A00003234FF6FF7CC4F2010E009300240123C9
:1001B000C1F2100C4FF0000A4FF0000944E000BFFC
:1001C000012704F00C030F229A402BEA020207FADF
:1001D00003F34FEA9A051A4346F825204E6840F289
:1001E0000C45F202DEF8082054BF22EA080242EA77
:1001F0000802C4F20105CEF808202A68B30254BFF1
:1002000022EA080242EA08022A60B303DEF8042068
:1002100054BF22EA080242EA0802F303CEF804209F
:10022000DEF800204FF0010354BF22EA080242EA40
:100230000802CEF800200E680AF1010A36FA0AF226
:1002400004F1040400F0A08003FA0AFB16EA0B088C
:10025000F1D04E68664511DC122E55D8DFE806F065
:10026000340A4448545454545454545454545454D4
:10027000544C5000D1F80C9046E000BF4FF6FF728E
:10028000C1F2210296420FDC0022C1F21102964215
:100290001AD00022C1F21202964215D00022C1F2F9
:1002A0002102964210D02FE00022C1F22202964293
:1002B0000AD00022C1F23102964205D00022C1F2DA
:1002C0003202964220D100BF8A684AB1012A14BF87
:1002D000C0F814B0C0F810B04FF0080914E000BF27
:1002E0004FF0040910E000BFCA6802F108090BE0F2
:1002F0004FF0000908E000BFCA6802F1040903E0FA
:10030000CA6802F10C0900BF22460646B8F5807F94
:1003100024BF203A043637680F25954027EA0505A3
:1003200009FA02F22A433260CA79D2067FF583AF16
:1003300041F21803C4F202031A68AEF57E7642F069
:1003400001021A601A6802F001020192019A2AF071
:10035000030256F802B040F60002C4F201029042D5
:1003600010D040F60042C4F2010290423FF428AFA0
:1003700041F20002C4F20102009F904208BF02272E
:100380001FE700BF00271CE702B0BDE8F08F0000A8
:10039000C26802EA0103914341EA034101617047E7
:1003A000002A08BF090401617047000040F25800AC
:1003B000C2F200000068704740F2000040F25801AD
:1003C000C2F20000C2F2000100780A68104408601E
:1003D0007047000080B542F20000C4F202000168DC
:1003E00041F010010160032000F08CF80F2000F0B4
:1003F00005F800F027F8002080BD000070B540F23D
:100400000006C2F2000640F208013278C2F2000192
:100410004FF47A730968B3FBF2F20446B1FBF2F1D0
:10042000084600F061FB0F2C4FF0010508D838B9E1
:100430004FF0FF3021460022002500F037F87460AD
:10044000284670BD82B041F21800C4F20200016873
:10045000042241F001010160016801F001010191F4
:100460000199416841F080514160406800F080503E
:10047000009000980420C4F20100016862F31A6140
:10048000016002B070470000002848BF704700F0CC
:100490001F01012202FA01F11C2202EAD0004EF2F1
:1004A0000012CEF2000281507047000010B54EF6E7
:1004B0000C5CCEF2000CDCF80030C3F3022E8EF0A0
:1004C0000704042C28BF0424BEF103034FF0FF3EB1
:1004D0000EFA04F438BF0023A14399400EFA03F347
:1004E0009A43114300F00F0200F160430901043AFE
:1004F00003F564436244002848BF02F10C031970FD
:1005000010BD00004EF60C51CEF200010A684FF605
:10051000FF031A4060F30A2242F0806040F0FD7051
:1005200008607047002804BF012070472DE9F043A0
:1005300081B042F20008C4F202080446D8F8000074
:100540000D4600F0070088420CD2D8F8000020F0D9
:1005500007002843C8F80000D8F8000000F00700A2
:10056000A8426CD1206841F204098107C4F2020953
:1005700017D5410705D5D9F8001041F4E061C9F855
:100580000010010705D5D9F8001041F46051C9F8F1
:100590000010D9F80010A26821F0F0011143C9F849
:1005A0000010C00742D1D8F8000000F00700A842B0
:1005B0000CD9D8F8000020F007002843C8F8000044
:1005C000D8F8000000F00700A84238D120684107A1
:1005D00007D5D9F80010E26821F4E0611143C9F8A9
:1005E0000010000708D5D9F80000216920F46050F8
:1005F00040EAC100C9F80000D9F8002002F00C0060
:10060000082841F20020C0F27A0051D141F2DE13F5
:10061000C2F38341C0F60003595CD2033CD440F6D8
:100620000010C0F23D00484342E000BF606802286D
:100630000AD001282AD159F8041C890308D40120C2
:1006400001B0BDE8F08300BF59F8041C8901F6D55C
:10065000D9F8001021F003010843C9F80000FFF7A2
:10066000A5FE064641F28837D9F80000616800F01F
:100670000C00B0EB810F96D0FFF798FE801BB842BC
:10068000F2D9032001B0BDE8F08300BF59F8041C83
:100690008907D4D5DCE700BFD9F8002041F2DC138C
:1006A000C2F34042C0F600039A5C4843B0FBF2F04C
:1006B000D9F8001041F2CC12C1F30311C0F60002C8
:1006C000515C40F2080220FA01F140F20400C2F24B
:1006D00000000068C2F200021160FFF78FFE0020E8
:1006E00001B0BDE8F0830000002804BF012070477E
:1006F0002DE9F04182B00446007841F20006C007BF
:10070000C4F202060CD0706800F00C00042840F01F
:1007100081803068800303D56068002800F04E8136
:10072000207880071BD5706810F00C0F09D0706816
:1007300000F00C00082840F08B807068C00300F1C6
:1007400087803068800703D52069012840F0368112
:100750003068616920F0F80040EAC100306020781C
:10076000000713D4207840072CD4E569002D00F051
:100770002081706800F00C00082840F0AF80012D47
:1007800040F00C81012002B0BDE8F081A069002892
:1007900000F08C800020C4F242200121C0F88014B7
:1007A000FFF704FE054600BF706A800700F1BA80BB
:1007B000FFF7FCFD401B0228F6D9032002B0BDE87C
:1007C000F08100BFF0695FEAC00808D4F06940F02A
:1007D0008050F061F06900F080500090009847F27E
:1007E0000007C4F200073868C0054DD4386840F4EB
:1007F00080703860FFF7DAFD054600BF3868C00535
:1008000042D4FFF7D3FD401B6428F7D9032002B080
:10081000BDE8F081706800F00C00082803D1706812
:10082000C0033FF576AF6068002800F00981B0F59D
:10083000A02F00F01D81B0F5803F00F01D813068D1
:1008400020F480303060306820F4802017E100BF51
:100850002069002840F20000C4F2422000F08C80A1
:1008600001210160FFF7A2FD054600BF3068800747
:100870003FF56EAFFFF79AFD401B0228F6D9032023
:1008800002B0BDE8F08100BFE068002800F09A8067
:10089000052800F0B180012800F0B280306A20F015
:1008A00001003062306A20F00400ACE00020C4F2A5
:1008B00042200021C0F88014FFF778FD054600BFF4
:1008C000706A80077FF54EAFFFF770FD401B02286E
:1008D000F6D9032002B0BDE8F08100BF0027C4F2C2
:1008E000422700203866FFF761FD022D05460DD135
:1008F0003068800140F1D680FFF758FD401B022888
:100900004FF00300F4D902B0BDE8F08130688001F7
:100910004FD5FFF74BFD401B02284FF00300F5D9E0
:10092000F1E700BF40F20800C2F20000006844F6A0
:10093000D351C1F26201A0FB0101480A019000BF3E
:1009400000BF0198411E002801913FF40BAF00BF8A
:100950000198411E002801913FF404AF00BF0198A7
:10096000411E002801913FF4FDAE00BF0198411ED9
:1009700000280191E4D1F5E600210160FFF716FDA2
:10098000054600BF306880077FF5E9AEFFF70EFD32
:10099000401B02284FF00300F4D9B4E77068216AC5
:1009A00000F480328A4209D1616A00F470108842F2
:1009B00004D1002002B0BDE8F08100BF012002B0E8
:1009C000BDE8F081306A20F001003062306A20F02A
:1009D00004003062FFF7EAFC054641F2883700BFA9
:1009E000306A800722D5FFF7E1FC401BB8424FF088
:1009F0000300F5D987E700BF306A40F00400306299
:100A0000306A40F001003062FFF7D0FC054641F249
:100A1000883700BF306A800708D4FFF7C7FC401B47
:100A2000B842F7D9032002B0BDE8F081B8F1000F59
:100A30003FF59BAEF06920F08050F06195E600BF75
:100A4000306820F480303060306820F480203060DE
:100A5000FFF7ACFC054600BF306880037FF560AE51
:100A6000FFF7A4FC401B64284FF00300F4D94AE7C9
:100A7000306840F480203060306840F4803030606E
:100A8000FFF794FC054600BF306880033FF548AE91
:100A9000FFF78CFC401B6428F6D9032002B0BDE8A8
:100AA000F08100BF206AB0F5803F05D17168A2686F
:100AB00021F40031114371607168626A21F474118C
:100AC00011430843706001203866FFF76FFC04464D
:100AD000306880013FF56DAFFFF768FC001B02280E
:100AE0004FF00300F4D90EE7411E0020B0EB116F68
:100AF0001CBF012070474EF21002CEF2000251607E
:100B00004EF62351CEF20001F0230B7007219060C6
:100B100011607047704700007047000090F83C205B
:100B2000012A4FF0020236D010B580F83D2002684D
:100B3000D2F804E0D2F808C00C682EF0700323430A
:100B400040F2FF74C4F20004A24253600ADCB2F126
:100B5000804F13D040F20043C4F200039A420DD0FC
:100B600011E000BF42F60043C4F201039A4205D0EF
:100B700040F60003C4F200039A4204D149682CF005
:100B80008003194391600121002280F83D1080F814
:100B90003C20BDE81040104670470000002804BF0C
:100BA0000120704710B5044690F83D0028B9002098
:100BB00084F83C00204600F067F8022084F83D00ED
:100BC000206840F2FF730268C4F2000342F6004C52
:100BD0009842C4F2010C15DCB0F1804F1AD040F2FB
:100BE0000041C4F20001884214D0984218DCB0F1F0
:100BF000804F1DD040F20041C4F20001884217D05E
:100C00001AE000BF604505D040F60001C4F20001C3
:100C10008842EAD1A16822F070020A439842E6DDD8
:100C2000604505D040F60001C4F20001884203D1BE
:100C3000216922F440720A43A36922F08001D4F8AA
:100C400004E0E268194360450160C262C0F828E030
:100C500002D16169CCF8301001214161002084F893
:100C6000461084F83E1084F83F1084F8401084F851
:100C7000411084F8421084F8431084F8441084F83A
:100C8000451084F83D1010BD0068B0F1804F18BFCA
:100C9000704780B582B041F21C00C4F202000168C6
:100CA000002241F0010101600068002100F0010014
:100CB000019001981C20FFF7F9FB1C2002B0BDE851
:100CC0008040FFF7E1BB000090F83D1001291CBFF8
:100CD00001207047022180F83D10006840F2FF7249
:100CE000C168C4F20002904241F00101C16009DC18
:100CF000B0F1804F12D040F20041C4F200018842AE
:100D00000CD012E042F60041C4F20101884205D045
:100D100040F60001C4F20001884206D1816801F06A
:100D20000701062904BF00207047016841F0010156
:100D3000016000207047000090F83C20012A4FF02D
:100D4000020200F0C58080B580F83D20D0F800C0D8
:100D50004FF67772DCF8083023EA0202CCF808205C
:100D60000B684F2B28DC1F2B44DD202B45D0302B6C
:100D700043D0402B40F0AE80D1F804E0C968DCF8E5
:100D80002030DCF8202022F00102CCF82020DCF812
:100D9000182022F0F00242EA011123F00A0242EA8E
:100DA0000E02CCF81810CCF82020DCF8081041F026
:100DB000470121F0300180E06F2B27DDB3F5005FA4
:100DC00048D0B3F5805F7AD0702B40F08380D1E9B2
:100DD00001E3C968DCF8082043EA0E0322F47F42ED
:100DE00043EA01211143CCF80810DCF8081041F067
:100DF000770162E00BB1102B6CD1DCF8081021F008
:100E00007001194341F0070157E000BF502B35D066
:100E1000602B5FD1D1F804E0C968DCF82030DCF841
:100E2000202022F01002CCF82020DCF8182022F438
:100E3000704242EA013123F0A00242EA0E12CCF8DD
:100E40001810CCF82020DCF8081041F0670121F0E0
:100E5000100132E0D1E901E3C968DCF8082043EA77
:100E60000E0322F47F4243EA01211143CCF808101B
:100E7000DCF8081041F480411FE000BFD1F804E025
:100E8000C968DCF82030DCF8202022F00102CCF820
:100E90002020DCF8182022F0F00242EA011123F0B1
:100EA0000A0242EA0E02CCF81810CCF82020DCF836
:100EB000081041F0570121F02001CCF80810002261
:100EC000012180F83D10002180F83C10BDE88040F1
:100ED000104670470122F3E77047000010B5016823
:100EE00004460869800744BFC8685FEA807039D447
:100EF0000869400744BFC8685FEA40703ED408698B
:100F0000000744BFC8685FEA007045D40869C0069E
:100F100044BFC8685FEAC0604AD40869C0071CBF04
:100F2000C8685FEAC07051D10869000644BFC8684C
:100F30005FEA006052D40869400644BFC8685FEAAF
:100F4000406053D40869800646BFC8685FEA806085
:100F500010BD6FF0200220460A61BDE81040FFF787
:100F6000DBBD00BF6FF002000861012020778869B7
:100F7000800743D02046FFF7AFFF45E06FF0040045
:100F8000086102202077886910F4407F40D0204615
:100F9000FFF7A2FF42E000BF6FF0080008610420E5
:100FA0002077C86980073DD02046FFF795FF3FE0D6
:100FB0006FF01000086108202077C86910F4407FA6
:100FC0003AD02046FFF788FF3CE000BF6FF00100F9
:100FD0000861204600F03EF82168A5E76FF0800028
:100FE00008612046FFF796FD2168A4E76FF04000F6
:100FF0000861204600F036F82168A3E7204600F09B
:1010000025F8204600F024F82168002020776FE7BB
:10101000204600F01BF8204600F01AF82168002056
:1010200020776CE7204600F011F8204600F010F819
:1010300021680020207769E7204600F007F8204665
:1010400000F006F821680020207766E7704700006E
:101050007047000040F60000C4F201002021FFF7B5
:1010600097B9000070470000FEE70000FEE70000AF
:10107000FEE700007047000070470000FFF79CB9D2
:101080007047000040F21000C2F20000FFF726BFD8
:10109000FEE7000090B0FFF79DF906AC201D24216B
:1010A000FFF747F80220069001200A9010200B90CD
:1010B000002520460D95FFF717FB28B1EFF31080B0
:1010C00072B600BFFEE700BF0F20CDE900056846FD
:1010D0000021CDE902550495FFF724FA20B1EFF382
:1010E000108072B6FEE700BF41F21800C4F20200A1
:1010F000016840F6000441F0040101600068C4F298
:10110000010400F0040006900698204620210022E9
:1011100020250026FFF744F90120CDE9070602202B
:10112000099006A920460695FFF72AF840F210001C
:10113000C2F200004FF08041C8230996CDE907664E
:10114000CDE900664FF4FA5280E84600C0E9033664
:101150008661FFF723FD28B1EFF3108072B600BF60
:10116000FEE700BF4FF48050069040F21000C2F23C
:10117000000006A9FFF7E0FD20B1EFF3108072B682
:10118000FEE700BF40F21000C2F200006946FFF720
:10119000C5FC28B1EFF3108072B600BFFEE700BFB8
:1011A00040F21000C2F20000FFF78EFDFEE702E001
:1011B00008C8121F08C1002AFAD1704770470020E2
:1011C00001E001C1121F002AFBD17047000000009E
:1011D00000000000010203040607080901020203DF
:1011E0000405060708090A0B0C0D0E0F101000006D
:1011F000101200080000002010000000AE110008CE
:10120000201200081000002050040000BE11000849
:1012100001000000100000000024F40000000000A5
:04000005080000ED02
:00000001FF
