:020000040800F2
:100000004804002001010008BD100008B5100008D8
:10001000B910000829020008D110000800000000F3
:10002000000000000000000000000000C5100008F3
:100030002D02000800000000C1100008C9100008CF
:100040001B0100081B0100081B0100081B01000820
:100050001B0100081B0100081B0100081B01000810
:100060001B0100081B0100081B0100081B01000800
:100070001B0100081B0100081B0100081B010008F0
:100080001B0100081B0100081B0100081B010008E0
:100090001B0100081B0100081B0100081B010008D0
:1000A0001B0100081B0100081B0100081B010008C0
:1000B0001B0100081B0100081B0100081B010008B0
:1000C0001B0100081B0100081B0100081B010008A0
:1000D0001B0100081B0100081B0100081B01000890
:1000E0001B0100081B0100081B010008DFF80CD0F1
:1000F00000F02AF800480047D51000084804002006
:100100000648804706480047FEE7FEE7FEE7FEE7B1
:10011000FEE7FEE7FEE7FEE7FEE7FEE7CD1000089C
:10012000ED000008D2B201E000F8012B491EFBD21D
:1001300070470022F6E710B513460A4604461946F2
:10014000FFF7F0FF204610BD1CB509480090094894
:1001500001900546009C06E0E06840F0010394E849
:10016000070098471034AC42F6D3FFF7C3FF0000F6
:100170004012000860120008B0B582B004460020AA
:10018000019021688A68D2074BD1886840F001004D
:10019000886040F20800C2F2000000684DF68361FA
:1001A000C4F21B31A0FB0101880C01900198A0B1A1
:1001B000019801380190019878B1019801380190B7
:1001C000019850B1019801380190019828B1019827
:1001D0000138019001980028EAD100F047FB21681E
:1001E0008968C9071CD1054603E000BF8068C007C5
:1001F00016D100F03BFB411B20680329F6D3816830
:10020000C907F3D1A06A40F01000A062E06A40F094
:100210000100E062002084F82400012002B0B0BD9B
:10022000002002B0B0BD0000FEE7000070470000F3
:1002300010B581B00022009290F82420012A03D149
:100240000221084601B010BD4B680122062B80F840
:10025000242033D8D0F800C003EB83035A1F1F2398
:10026000DCF834E003FA02F40B682EEA040403FA23
:1002700002F22243CCF83420092B03EB430249D984
:10028000DCF80CE01E3A0724896894402EEA040446
:10029000914023F001022143102ACCF80C1043D1E5
:1002A00042F20841C4F20101A1F10802944543D091
:1002B000816A41F020018162012136E0D0F800C05E
:1002C0000C2B03EB830213D8233A1F23DCF830E016
:1002D00003FA02F40B682EEA040403FA02F2224342
:1002E000CCF83020092B03EB4302C9D812E000BF41
:1002F000413A1F23DCF82CE003FA02F40B682EEAE3
:10030000040403FA02F22243CCF82C20092B03EB5D
:100310004302B5D8DCF81030072489689440A34321
:1003200091401943CCF810100021002280F82420BD
:10033000084601B010BD00BF0A681202F4D40A6872
:10034000102B42F400020A60EED140F20801C2F222
:10035000000109684DF68362C4F21B32A1FB021250
:10036000910C01EB81014900009100990029DBD03B
:1003700000990139009100990029D5D000990139DF
:10038000009100990029CFD000990139009100997E
:100390000029C9D0009901390091009900294FF036
:1003A0000001E5D1C1E700000068C06C70470000A3
:1003B000002804BF01207047B0B50446806A28B108
:1003C00021688868C0070CD115E000BF0020E062FA
:1003D00084F82400204600F09BF821688868C00754
:1003E00009D0886820F00100886000F03FFA216899
:1003F0008A68D20726D1A06AC0063AD4A06A41F220
:10040000021290430230A062E069D4E9013240EA6E
:10041000030C531EB3FA83F35D091346B2F5807FD4
:1004200018BF2B02207D257B01284CEA450030D1E6
:1004300035B3A56A45F02005A562E56A45F00105DA
:10044000E56226E0054602E08868C007D3D000F0E8
:100450000DFA401B21680328F6D38868C007F3D043
:10046000A06A40F01000A062E06A40F00100E06283
:10047000A06AA06A40F01000A0620120B0BD00BFD9
:10048000D4F818C04EF60005CFF6FF7505EB4C35D5
:100490002B434D68B2F5807F25F4694543EA050397
:1004A0004B608B684FF2FD75CFF6E17503EA0503EB
:1004B00043EA00038B6001D0012A07D1226900239F
:1004C000CFF6F07303EB025201E000BF0022CB6ACB
:1004D00023F470031A43CA62896840F6FE62CFF6BD
:1004E0001F721140814207D10020E062A16A0122FF
:1004F00062F30101A162B0BDA06A40F0100020F0DB
:100500000200A062E06A40F00100E0620120B0BD9C
:1005100080B586B0014640F60000C4F201000968CB
:1005200000F5E05291424FF00001CDE9041101D0F5
:1005300006B080BD41F21801C4F202010A6842F41B
:1005400000720A600A6802F400720192019A0A6855
:1005500042F004020A60096801F004010191019966
:10056000012102910321039102A900F069F806B06C
:1005700080BD000010B5044690F82400012804BF97
:10058000022010BD012084F824002046FFF7F4FD6E
:1005900020B1002084F82400012010BD42F2044C58
:1005A0002068A16AC4F2010C40F2013291430CF5BB
:1005B0007F7201F580719042A16233D0A16A21F46B
:1005C0008011A1624168490504D5A16A012363F342
:1005D0000D31A162A16A0023C9044FF0000144BF9C
:1005E000E16A21F00601E1626FF0020184F8243033
:1005F0000160816801F46021B1F5602F06D190425D
:100600000AD1DCF8001011F4702F05D0816841F494
:1006100080118160002010BD816841F4A0018160DB
:10062000002010BDDCF8001011F4702FC6D0A16AB4
:1006300041F48011A162DCF800104905C5D4C9E776
:100640002DE9F04F82B00E68002E00F0FD8041F2DF
:100650000042C4F20102042340F2004E904208BF5F
:1006600003234FF6FF7CC4F2010E00930024012304
:10067000C1F2100C4FF0000A4FF0000944E000BF37
:10068000012704F00C030F229A402BEA020207FA1A
:1006900003F34FEA9A051A4346F825204E6840F2C4
:1006A0000C45F202DEF8082054BF22EA080242EAB2
:1006B0000802C4F20105CEF808202A68B30254BF2C
:1006C00022EA080242EA08022A60B303DEF80420A4
:1006D00054BF22EA080242EA0802F303CEF80420DB
:1006E000DEF800204FF0010354BF22EA080242EA7C
:1006F0000802CEF800200E680AF1010A36FA0AF262
:1007000004F1040400F0A08003FA0AFB16EA0B08C7
:10071000F1D04E68664511DC122E55D8DFE806F0A0
:10072000340A44485454545454545454545454540F
:10073000544C5000D1F80C9046E000BF4FF6FF72C9
:10074000C1F2210296420FDC0022C1F21102964250
:100750001AD00022C1F21202964215D00022C1F234
:100760002102964210D02FE00022C1F222029642CE
:100770000AD00022C1F23102964205D00022C1F215
:100780003202964220D100BF8A684AB1012A14BFC2
:10079000C0F814B0C0F810B04FF0080914E000BF62
:1007A0004FF0040910E000BFCA6802F108090BE02D
:1007B0004FF0000908E000BFCA6802F1040903E035
:1007C000CA6802F10C0900BF22460646B8F5807FD0
:1007D00024BF203A043637680F25954027EA0505DF
:1007E00009FA02F22A433260CA79D2067FF583AF52
:1007F00041F21803C4F202031A68AEF57E7642F0A5
:1008000001021A601A6802F001020192019A2AF0AC
:10081000030256F802B040F60002C4F20102904210
:1008200010D040F60042C4F2010290423FF428AFDB
:1008300041F20002C4F20102009F904208BF022769
:100840001FE700BF00271CE702B0BDE8F08F0000E3
:10085000C26802EA0103914341EA03410161704722
:10086000002A08BF090401617047000040F24400FB
:10087000C2F200000068704740F2000040F24401FC
:10088000C2F20000C2F2000100780A681044086059
:100890007047000080B542F20000C4F20200016817
:1008A00041F010010160032000F07AF80F2000F001
:1008B00005F800F027F8002080BD000070B540F278
:1008C0000006C2F2000640F208013278C2F20001CE
:1008D0004FF47A730968B3FBF2F20446B1FBF2F10C
:1008E000084600F0D1FB0F2C4FF0010508D838B9AD
:1008F0004FF0FF3021460022002500F025F87460FB
:10090000284670BD82B041F21800C4F202000168AE
:10091000042241F001010160016801F0010101912F
:100920000199416841F080514160406800F0805079
:10093000009000980420C4F20100016862F31A617B
:10094000016002B07047000010B54EF60C5CCEF2AC
:10095000000CDCF80030C3F3022E8EF00704042CE8
:1009600028BF0424BEF103034FF0FF3E0EFA04F447
:1009700038BF0023A14399400EFA03F39A43114371
:1009800000F00F0200F160430901043A03F56443EB
:100990006244002848BF02F10C03197010BD00002A
:1009A0004EF60C51CEF200010A684FF6FF031A40D2
:1009B00060F30A2242F0806040F0FD7008607047EA
:1009C0002DE9F04182B00446007841F21C06C007D0
:1009D000C4F202064AD030685FEAC00808D4306822
:1009E00040F080503060306800F0805001900198F5
:1009F00047F20007C4F200073868C00512D438680F
:100A000040F480703860FFF731FF05463868C00554
:100A100008D4FFF72BFF401B6428F7D9032002B04E
:100A2000BDE8F081706810F4407012D0616801F484
:100A3000407188420DD0706840F24042C4F24222B8
:100A4000012320F4407113600023C007136071601C
:100A500026D17068616820F440700843B8F1000F37
:100A6000706003D4306820F08050306020688107C7
:100A700007D556F8181CA26821F44041114346F8E6
:100A8000181CC00607D556F8180CE16820F4800041
:100A9000084346F8180C002002B0BDE8F08100BF02
:100AA000FFF7E4FE054641F2883700BF7068800713
:100AB000CFD4FFF7DBFE401BB8424FF00300F5D95F
:100AC000EAE70000002804BF012070472DE9F04349
:100AD00081B042F20008C4F202080446D8F80000CF
:100AE0000D4600F0070088420CD2D8F8000020F034
:100AF00007002843C8F80000D8F8000000F00700FD
:100B0000A8426CD1206841F204098107C4F20209AD
:100B100017D5410705D5D9F8001041F4E061C9F8AF
:100B20000010010705D5D9F8001041F46051C9F84B
:100B30000010D9F80010A26821F0F0011143C9F8A3
:100B40000010C00742D1D8F8000000F00700A8420A
:100B50000CD9D8F8000020F007002843C8F800009E
:100B6000D8F8000000F00700A84238D120684107FB
:100B700007D5D9F80010E26821F4E0611143C9F803
:100B80000010000708D5D9F80000216920F4605052
:100B900040EAC100C9F80000D9F8002002F00C00BA
:100BA000082841F20020C0F27A0051D141F22E23F0
:100BB000C2F38341C0F60003595CD2033CD440F633
:100BC0000010C0F23D00484342E000BF60680228C8
:100BD0000AD001282AD159F8041C890308D401201D
:100BE00001B0BDE8F08300BF59F8041C8901F6D5B7
:100BF000D9F8001021F003010843C9F80000FFF7FD
:100C000035FE064641F28837D9F80000616800F0E9
:100C10000C00B0EB810F96D0FFF728FE801BB84286
:100C2000F2D9032001B0BDE8F08300BF59F8041CDD
:100C30008907D4D5DCE700BFD9F8002041F22C2386
:100C4000C2F34042C0F600039A5C4843B0FBF2F0A6
:100C5000D9F8001041F21C22C1F30311C0F60002C2
:100C6000515C40F2080220FA01F140F20400C2F2A5
:100C700000000068C2F200021160FFF71FFE0020B2
:100C800001B0BDE8F0830000002804BF01207047D8
:100C90002DE9F04182B00446007841F20006C00719
:100CA000C4F202060CD0706800F00C00042840F07A
:100CB00081803068800303D56068002800F04E8191
:100CC000207880071BD5706810F00C0F09D0706871
:100CD00000F00C00082840F08B807068C00300F121
:100CE00087803068800703D52069012840F036816D
:100CF0003068616920F0F80040EAC1003060207877
:100D0000000713D4207840072CD4E569002D00F0AB
:100D10002081706800F00C00082840F0AF80012DA1
:100D200040F00C81012002B0BDE8F081A0690028EC
:100D300000F08C800020C4F242200121C0F8801411
:100D4000FFF794FD054600BF706A800700F1BA8086
:100D5000FFF78CFD401B0228F6D9032002B0BDE846
:100D6000F08100BFF0695FEAC00808D4F06940F084
:100D70008050F061F06900F080500090009847F2D8
:100D80000007C4F200073868C0054DD4386840F445
:100D900080703860FFF76AFD054600BF3868C005FF
:100DA00042D4FFF763FD401B6428F7D9032002B04B
:100DB000BDE8F081706800F00C00082803D170686D
:100DC000C0033FF576AF6068002800F00981B0F5F8
:100DD000A02F00F01D81B0F5803F00F01D8130682C
:100DE00020F480303060306820F4802017E100BFAC
:100DF0002069002840F20000C4F2422000F08C80FC
:100E000001210160FFF732FD054600BF3068800711
:100E10003FF56EAFFFF72AFD401B0228F6D90320ED
:100E200002B0BDE8F08100BFE068002800F09A80C1
:100E3000052800F0B180012800F0B280306A20F06F
:100E400001003062306A20F00400ACE00020C4F2FF
:100E500042200021C0F88014FFF708FD054600BFBE
:100E6000706A80077FF54EAFFFF700FD401B022838
:100E7000F6D9032002B0BDE8F08100BF0027C4F21C
:100E8000422700203866FFF7F1FC022D05460DD100
:100E90003068800140F1D680FFF7E8FC401B022853
:100EA0004FF00300F4D902B0BDE8F0813068800152
:100EB0004FD5FFF7DBFC401B02284FF00300F5D9AC
:100EC000F1E700BF40F20800C2F20000006844F6FB
:100ED000D351C1F26201A0FB0101480A019000BF99
:100EE00000BF0198411E002801913FF40BAF00BFE5
:100EF0000198411E002801913FF404AF00BF019802
:100F0000411E002801913FF4FDAE00BF0198411E33
:100F100000280191E4D1F5E600210160FFF7A6FC6D
:100F2000054600BF306880077FF5E9AEFFF79EFCFD
:100F3000401B02284FF00300F4D9B4E77068216A1F
:100F400000F480328A4209D1616A00F4701088424C
:100F500004D1002002B0BDE8F08100BF012002B042
:100F6000BDE8F081306A20F001003062306A20F084
:100F700004003062FFF77AFC054641F2883700BF73
:100F8000306A800722D5FFF771FC401BB8424FF052
:100F90000300F5D987E700BF306A40F004003062F3
:100FA000306A40F001003062FFF760FC054641F214
:100FB000883700BF306A800708D4FFF757FC401B12
:100FC000B842F7D9032002B0BDE8F081B8F1000FB4
:100FD0003FF59BAEF06920F08050F06195E600BFD0
:100FE000306820F480303060306820F48020306039
:100FF000FFF73CFC054600BF306880037FF560AE1C
:10100000FFF734FC401B64284FF00300F4D94AE793
:10101000306840F480203060306840F480303060C8
:10102000FFF724FC054600BF306880033FF548AE5B
:10103000FFF71CFC401B6428F6D9032002B0BDE872
:10104000F08100BF206AB0F5803F05D17168A268C9
:1010500021F40031114371607168626A21F47411E6
:1010600011430843706001203866FFF7FFFB044618
:10107000306880013FF56DAFFFF7F8FB001B0228D9
:101080004FF00300F4D90EE7411E0020B0EB116FC2
:101090001CBF012070474EF21002CEF200025160D8
:1010A0004EF62351CEF20001F0230B700721906021
:1010B00011607047FEE70000FEE70000FEE7000059
:1010C0007047000070470000FFF7D6BB7047000074
:1010D000FEE7000094B0FFF7DDFB0AAC201D2421E1
:1010E000FFF727F802200A9001200E90102000251B
:1010F0000F9020460495CDE902551195FFF7C4FDE8
:1011000020B1EFF3108072B6FEE700BF0F20CDE9EB
:10111000050505A80021CDE907550995FFF7D2FC83
:1011200020B1EFF3108072B6FEE700BF0226002563
:1011300001A801960395FFF743FC28B1EFF3108057
:1011400072B600BFFEE700BF41F21800C4F2020011
:10115000016840F6000441F0040101600068C4F237
:10116000010400F004000A900A982046A021002201
:10117000A027FFF775FB0A9701270AA92046CDE9AA
:101180000B750D96FFF75CFA40F21006C2F20006EE
:1011900004F5E051304640F8041F4FF46021077316
:1011A0000575C161C0E901550761FFF701F928B173
:1011B000EFF3108072B600BFFEE700BF0020CDE95C
:1011C0000A070720351D0C900AA92846FFF730F8BA
:1011D00020B1EFF3108072B6FEE700BF2846FFF79C
:1011E000C9F900BF2846FFF7DFF8308020462021EC
:1011F000FFF72EFB20468021FFF72AFBF2E702E0F3
:1012000008C8121F08C1002AFAD170477047002091
:1012100001E001C1121F002AFBD17047000000004D
:10122000000000000102030406070809010202038E
:101230000405060708090A0B0C0D0E0F101000001C
:10124000601200080000002010000000FE110008DD
:101250007012000810000020380400000E12000870
:1012600001000000100000000024F4000000000055
:04000005080000ED02
:00000001FF
